{
  "txid": "263126632aa02d11871c7d0b31057e28e9c691db48ec5c960cf4485537e5b5be",
  "raw": "02000000014d21520c704fa6a22bbed42e2cdc3b2bc2e9c3169de2c232df70558cd819c537030000006a47304402206af9ec4b34553f98f4c064712d42f83293c32022dddb61483a41b5feb4405a6b022075c3b914dedabbf076628b9aededf22c2a98db35fbaa13f96b8e54c9bf736434012103019d728e15ef7dd6f200b48f3b18350749a26435a7d472e5559f2815d417e688fdffffff0440420f000000000017a9148296da5ca015c76181754a475b0677012cf639608780841e00000000001976a9147e8d5abc0c1910fd3fcbb74617cb6ca9bf784aca88ac00e1f505000000001976a914f48a2fcde04893e5c076f842067b071767c748de88ac18270c23000000001976a9142e7a7c2f669c0ddd52321624108b16a54143a02988acfc730000",
  "fees": 100,
  "to": [
    {
      "address": "U2xG44uNWvbszm6nhwJR9MEf1vz5MPg3MmtoM",
      "amount": 1000000
    },
    {
      "address": "U2xFeMxJfqbjGFEoCiQ3wFProGrDct9Ep7Snk",
      "amount": 2000000
    },
    {
      "address": "U2xFq7pFDC4G2UXABvytzW7guM9DT9R5Z2MG2",
      "amount": 100000000
    },
    {
      "address": "U2xFX4ZeG1x4xLvaXC63QPEQL9YyjD9kR2NkH",
      "amount": 587999000
    }
  ],
  "sign_paths": [
    "m/44'/1'/0'/0/0"
  ],
  "sigs": [
    {
      "pubkey": "03019d728e15ef7dd6f200b48f3b18350749a26435a7d472e5559f2815d417e688",
      "sig": "304402206af9ec4b34553f98f4c064712d42f83293c32022dddb61483a41b5feb4405a6b022075c3b914dedabbf076628b9aededf22c2a98db35fbaa13f96b8e54c9bf73643401"
    }
  ],
  "change_path": null,
  "lock_time": 29692,
  "utxos": [
    {
      "txid": "37c519d88c5570df32c2e29d16c3e9c22b3bdc2c2ed4be2ba2a64f700c52214d",
      "raw": "0200000001c8e6dee033ab6c8a13285b65e884d7919a6588fe998de1623615039724bd8785030000006a473044022016d1f417d1550922f4f7d2d66935cdcadfc7ab181961c8fdf275379944ec0d2c022017c7d8cff807568d7ddb6696af3f5861013dbcfe81dbb142b7e6ded8b4dfb292012103019d728e15ef7dd6f200b48f3b18350749a26435a7d472e5559f2815d417e688fdffffff0440420f000000000017a9148296da5ca015c76181754a475b0677012cf639608780841e00000000001976a9147e8d5abc0c1910fd3fcbb74617cb6ca9bf784aca88ac00e1f505000000001976a91456673a941e8df74f27229c6ecfb50f048ef185e288ac3ccf2f29000000001976a9142e7a7c2f669c0ddd52321624108b16a54143a02988ace41e0000",
      "output_indexes": [
        3
      ],
      "output_amounts": [
        690999100
      ]
    }
  ]
}